:020000040800F2
:100000005007002031020008FF1A0008B518000848
:10001000FD1A0008C706000867200008000000005D
:10002000000000000000000000000000031B0008AA
:10003000C906000800000000011B0008051B00089D
:100040004B0200084B0200084B0200084B0200085C
:100050004B0200084B0200084B0200084B0200084C
:10006000CB060008D1060008D70600084B0200089E
:100070004B0200084B0200084B0200084B0200082C
:100080004B0200084B0200084B0200084B0200081C
:100090004B0200084B0200084B0200084B0200080C
:1000A0004B0200084B0200084B0200084B020008FC
:1000B000AD1B00084B0200084B0200084B02000871
:1000C0004B0200084B0200084B0200084B020008DC
:1000D0004B0200084B0200084B0200084B020008CC
:1000E0004B0200084B0200084B0200084B020008BC
:1000F0004B0200084B0200084B0200084B020008AC
:100100004B0200084B0200084B0200084B0200089B
:100110004B0200084B0200084B0200084B0200088B
:100120004B0200084B0200084B0200084B0200087B
:100130004B0200084B0200084B0200084B0200086B
:100140004B0200084B0200084B0200084B0200085B
:100150004B0200084B0200084B0200084B0200084B
:100160004B0200084B0200084B0200084B0200083B
:100170004B0200084B0200084B0200080000000080
:100180004B0200084B02000800F002F800F041F8B2
:100190000AA090E8000C82448344AAF10107DA45E2
:1001A00001D100F036F8AFF2090EBAE80F0013F0F3
:1001B000010F18BFFB1A43F001031847781F000016
:1001C000981F0000103A24BF78C878C1FAD85207A7
:1001D00024BF30C830C144BF04680C6070470000C1
:1001E0000023002400250026103A28BF78C1FBD840
:1001F000520728BF30C148BF0B607047752900F017
:10020000C980002070471FB501F082FF1FBD10B5E7
:1002100010BD00F01EFA1146FFF7F5FF01F034FFA4
:1002200000F03CFA03B4FFF7F2FF03BC00F044FA1D
:100230000948804709480047FEE7FEE7FEE7FEE77A
:10024000FEE7FEE7FEE7FEE7FEE7FEE704480549B6
:10025000054A064B704700009D1B000889010008F5
:1002600050010020500700205003002050030020C0
:1002700053EA020C00F069802DE9F04B4FF00006C4
:10028000002B1FBFB3FA83F503FA05F424FA05F631
:100290005E4012BF1643B2FA82F502FA05F4C5F1C8
:1002A00020051EBF22FA05FC44EA0C04203556EA5C
:1002B000044C4FEA144418BF641C4FF000084FF080
:1002C0000009904271EB030C39D3002919BFB1FA30
:1002D00081F701FA07F6B0FA80F700FA07F6C7F1DE
:1002E00020071EBF20FA07FC46EA0C062037B6FBA3
:1002F000F4FCA7EB0507103F07F01F0BCBF120061E
:100300000CFA0BFB2CFA06F644BFB3460026202F4E
:10031000A4BF5E464FF0000B5BEA060C08BF4FF02F
:10032000010B19EB0B09ABFB027C48EB0608C01B69
:1003300006FB02CC0BFB03CC71EB0C01C1E70B46B7
:10034000024641464846BDE8F08B13B54FF0000029
:100350004FF00001AFF30080BDE81C407047000083
:100360000FB41CB50C0007AA009001D02044401E19
:10037000074B7B4469460190069800F04AF9002C2F
:1003800003D06946002000F057F91CBC5DF814FB4F
:10039000CD0200002DE9F0410646002410687529C1
:1003A000314616A510D0AFF30080002802DA404293
:1003B00013A507E031688A0701D512A502E04907B5
:1003C00004D511A5012401E0AFF3008000210A2229
:1003D00006F1240709E0B0FBF2FCB0FBF2F302FBEC
:1003E0001C00303078541846491C0028F3D12346AD
:1003F0002A463046BDE8F04100F0ADB800000000EC
:100400002D0000002B000000200000002DE9F0412D
:100410000F460546002028622846E968884770B3E1
:10042000252805D0D5E901219047286A401CF2E72C
:10043000E9682846002688476C2804460AD0682CBC
:1004400008D04C2C35D06A2C31D0742C31D07A2C79
:100450002FD016E0E968064628468847B042044691
:1004600008D16C2E23D04FF480662846E96888476F
:10047000044606E06C2E03D04FF4807601E01EE0C7
:100480004026E4B1A4F14100192802D8203446F4F2
:1004900000663A46214628462E60FFF7AFFE60B15F
:1004A000012808D0FF1D27F007070837B4E780268A
:1004B000DBE70026D9E73F1DAEE72046B2E7286A12
:1004C000BDE8F08110B5431C02E010F8011B71B1CA
:1004D0008107FAD14FF0013202C88C1A8C4314EA1A
:1004E000C211F9D0C01A0A0603D0C01E10BDC01A2E
:1004F00010BD0A0401D0801E10BD0902FCD0401EB0
:1005000010BD4FF0000200B51346944696462039C0
:1005100022BFA0E80C50A0E80C50B1F12001BFF4BC
:10052000F7AF090728BFA0E80C5048BF0CC05DF822
:1005300004EB890028BF40F8042B08BF704748BF70
:1005400020F8022B11F0804F18BF00F8012B7047E4
:100550007047704770472DE9F0470D46994692461F
:10056000044600F124080168880604D5E06921F0FA
:100570001001216000E00120A84201DD471B00E0DE
:100580000027A1697A1902EB0900081AA0612078F6
:10059000C00602D42046AFF30080002608E0D4E96C
:1005A00001211AF806009047206A401C761C206240
:1005B0004E45F4DB2078C0060AD52046AFF3008014
:1005C00006E0D4E9012130209047206A401C2062D7
:1005D000381EA7F10107F4DC07E0D4E9012118F87F
:1005E00005009047206A401C2062281EA5F10105E5
:1005F000F3DC2046AFF300802078000602D502200D
:10060000BDE8F0870120FBE701694A1C0261087818
:10061000704700B58FB0CDE9013100210591054942
:100620007944CDE9031011466846FFF7EFFE0FB09D
:1006300000BD0000E5FFFFFF0A6802F8010B0A6039
:100640007047D1E900239A4202D2531C0B6010700C
:100650007047754600F02CF8AE46050069465346D3
:1006600020F00700854618B020B5FFF7EFFDBDE884
:1006700020404FF000064FF000074FF000084FF009
:10068000000B21F00701AC46ACE8C009ACE8C0099A
:10069000ACE8C009ACE8C0098D46704710B5044607
:1006A000AFF300802046BDE81040FFF7BBBD00005F
:1006B00000487047F000002001491820ABBEFEE75B
:1006C000260002007047FEE77047042000F048B89B
:1006D000082000F045B8102000F042B872B6FEE7DE
:1006E00070B5044600F04EF90546601C02D004487F
:1006F0000078044400F046F9401BA042FAD370BDD4
:10070000080000203EB5044604281AD10A20FFF74D
:10071000E7FF4FF480610C4800F026F90B480CA26B
:100720000B2103685B1C03606846FFF719FE6846EF
:10073000FFF7C8FE82B24FF0FF336946064801F06A
:1007400069F8064804603EBD001402400000002025
:10075000256C750D0A000000A8000020143C014023
:10076000044910B50A68024202D00860FFF7CAFFC8
:1007700010BD0000143C01402DE9F84FDFF8BCA18A
:100780000022012503264FF00F090AF1040BAAF1FC
:10079000040E00BF0B6805FA02F42340A34270D197
:1007A0000F7907F00307012F01D0022F16D18768B8
:1007B0004FEA420806FA08FC27EA0C07D1F80CC0F9
:1007C0000CFA08FC4CEA070CC0F808C04768A743BD
:1007D0000C79C4F3001494403C4344600C79E44326
:1007E000A4070AD0C4684FEA420C06FA0CF7BC43CF
:1007F0008F6807FA0CF72743C7600C7904F00304ED
:10080000022C12D1D40800EB840CDCF820405707EE
:10081000FF0E09FA07F824EA0804D1F8108008FA54
:1008200007F848EA0408CCF8208004684FEA420C34
:1008300006FA0CF7BC430F7907F0030707FA0CF729
:10084000274307604C6814F4403F70D03C4C276845
:1008500047F480472760246822F0030704F48044AB
:100860000094384C07EB040CDCF8084897074FEA73
:10087000177809FA08F7BC43334FB84202D1002772
:1008800024E054E0314FB84201D101271EE0304F3F
:10089000B84201D1022719E02E4FB84201D10327F7
:1008A00014E02D4FB84201D104270FE02B4FB8427E
:1008B00001D105270AE02A4FB84201D1062705E0F9
:1008C000284FB84201D1072700E0082707FA08F7A8
:1008D0002743CCF80878DAF800405746D1F804C02E
:1008E0009C435FEACC2C00D51C433C60DBF8004005
:1008F0005F46D1F804C09C435FEA8C2C00D51C43B2
:100900003C60DEF800407746D1F804C09C435FEAC3
:100910008C3C00D51C433C60084F083F3C68D1F834
:1009200004C09C435FEACC3C00D51C433C60521C95
:10093000102AFFF42FAFBDE8F88F0000083C0140FB
:1009400044380240003001400000024000040240F0
:1009500000080240000C0240001002400014024057
:1009600000180240001C0240426921EA02030A40CA
:1009700043EA0241816170470AB18161704709040D
:10098000FBE7000001488068704700000800002075
:100990000248816802781144816070470800002095
:1009A0000B4810B5016841F400710160016841F421
:1009B00080610160016841F480710160032000F0F2
:1009C0006FF8002000F006F800F024F8002010BDB9
:1009D000003C024070B50D4D04464FF47A71287802
:1009E000B1FBF0F00A490968B1FBF0F000F00AFB36
:1009F00048B9102C07D200222146501E00F030F8D2
:100A000000206C6070BD012070BD00000800002057
:100A1000140000200A4808B5016841F480410160D3
:100A2000006800F4804000900548001F016841F014
:100A300080510160006800F08050009008BD000007
:100A400044380240002809DB00F01F0201219140D8
:100A50004009800000F1E020C0F80011704700005C
:100A6000F0B40E4B1B680C46C3F30223C3F1070519
:100A7000042D00D90425191D072901D2002300E007
:100A8000DB1E012606FA05F1491E214099409E40D1
:100A9000761E16403143F0BC01F0E6BA0CED00E0E2
:100AA000064900F0070208684FF6FF03184040EAC5
:100AB0000220034A10430860704700000CED00E07C
:100AC0000000FA052DE9F0470E46050065D0DFF875
:100AD0001481D8F80000F7B200F00700B04207D246
:100AE00088F80070D8F8000000F00700B04254D138
:100AF00028683D4C810712D5400703D5206840F493
:100B0000E05020602878000703D5206840F460405A
:100B100020602068A96820F0F00008432060287851
:100B2000C0072DD0304968680839012812D0022842
:100B300013D0032811D00968890700292DDA21680C
:100B400021F0030101432160FFF71CFF814641F2C0
:100B5000883A0EE009688903EFE709688901ECE744
:100B6000FFF710FFA0EB0901514502D90320BDE8B2
:100B7000F0872068696800F00C00B0EB810FEFD1BE
:100B8000D8F80010404601F00701B14207D90770BC
:100B9000006800F00700B04201D00120E7E72878A4
:100BA000400705D52068E96820F4E050084320603C
:100BB0002878000706D52068296920F4604040EABB
:100BC000C100206000F038F82168084AC1F3031121
:100BD000515CC8400649086006480068FFF7FAFE05
:100BE0000020C4E7003C0240083802401A210008F7
:100BF000140000200C000020044805490068096822
:100C0000044AC1F38221515CC8407047140000209F
:100C1000083802402A21000804480549006809688C
:100C2000044AC1F34231515CC840704714000020AF
:100C3000083802402A210008154810B5006810F055
:100C40000C02144813D04110042A0FD0082A0ED1E8
:100C50000F4C241F2268236802F03F025B0207D575
:100C60002068C0F38810A0FB010106E0084610BD13
:100C70002168C1F38811A1FB00010023FFF7F8FAF6
:100C80002168C1F30141491C4900B0FBF1F010BDDE
:100C9000083802400024F4002DE9F84F04006ED01B
:100CA0002078DFF84C93C007A9F104054AD009F178
:100CB00004000168C1F38101012908D00068C0F374
:100CC000810002280AD1D9F80000400206D5286820
:100CD000800337D560680028E1D033E06068B0F564
:100CE000803F10D0B0F5A02F286810D020F48030BD
:100CF0002860286820F4802028606068A8B1FFF789
:100D000041FE06460DE0286840F48030F4E740F4E8
:100D100080202860F7E700BFFFF734FE801B6428BF
:100D200073D828688003F7D50CE0FFF72BFE064642
:100D300005E000BFFFF726FE801B6428F0D8286876
:100D40008003F7D42078DFF8AC8280074FF0000AE8
:100D50003ED5A748001D016811F00C0F08D00068AF
:100D6000C0F3810002280BD1D9F80000400207D45B
:100D70002868800716D5E068012800D112E033E129
:100D8000E068B8B10120C8F80000FFF7FBFD064697
:100D900005E000BFFFF7F6FD801B0228C0D82868D9
:100DA0008007F7D52868216920F0F80040EAC100E3
:100DB00028600DE0C8F800A0FFF7E4FD064604E057
:100DC000FFF7E0FD801B02281FD828688007F7D4B2
:100DD0002078000722D5864F87486169703771B146
:100DE00001210160FFF7CEFD064604E0FFF7CAFDD2
:100DF000801B022809D838688007F7D50EE0C0F8B4
:100E000000A0FFF7BFFD064605E082E0FFF7BAFD50
:100E1000801B02287DD838688007F7D420784007E7
:100E200068D5DFF8CCB100270BF13C0BDBF80000F4
:100E3000C0000BD4DBF8001041F08051CBF800105B
:100E4000DBF80000012700F0805000906B4E306806
:100E5000C00510D4306840F480703060FFF792FD18
:100E6000009005E0FFF78EFD0099401A022850D847
:100E70003068C005F6D55E4EA0686C3601280FD0EC
:100E80000528306810D020F001003060306820F074
:100E900004003060A068B8B1FFF774FD00900FE067
:100EA000306840F00100F4E740F004003060F7E7FC
:100EB000FFF768FD0099411A41F28830814266D8F7
:100EC00030688007F4D50EE0FFF75CFD009007E086
:100ED000FFF758FD0099411A41F28830814256D8F7
:100EE00030688007F4D42FB1DBF8001021F0805176
:100EF000CBF80010A069C8B33D49091D0968C1F3CA
:100F0000810102294AD00228504607D0C8F8600063
:100F100000E03CE0FFF736FD04463BE04746C8F8FA
:100F20006000FFF72FFD064605E000BFFFF72AFD32
:100F3000801B02282BD828688001F7D4D4E9070148
:100F40000843A16A2E4A490802EB0141626A41EA5C
:100F50008211084394F82C1040EA0161C9F800108E
:100F600001203866FFF70EFD044606E03EE000BFB4
:100F7000FFF708FD001B022809D828688001F7D573
:100F800034E000BFFFF7FEFC001B022802D903205B
:100F9000BDE8F88F28688001F4D427E00128F7D055
:100FA000D9F80000E26900F4800191421CD1226A64
:100FB00000F03F01914217D147F6C071626A0140CB
:100FC000B1EB821F10D1A26A4FF0FF3300F4403121
:100FD00003EB5202B1EB024F06D194F82C1000F053
:100FE0007060B0EB016F01D00120D1E70020CFE7A6
:100FF0000438024000004742800E47420070004023
:101000000000FFFF10B5401EB0F1807F01D301202A
:1010100010BD4FF0E02460610F21601701F024F84B
:101020000020A06107202061002010BD704770479C
:1010300070B590F83C20012A32D0012480F83C4061
:10104000022280F83D2003685A689D6822F07006ED
:101050000A6832435A60134B02689A4214D0B2F1C4
:10106000804F11D0104B9A420ED0104B9A420BD0A9
:101070000F4B9A4208D00F4B9A4205D00E4B9A4222
:1010800002D00E4B9A4204D1496825F080031943DF
:10109000916080F83D40002180F83C10084670BD0A
:1010A000022070BD00000140000400400008004024
:1010B000000C0040000401400040014000180040C6
:1010C00010B5040003D094F83D0010B107E00120F2
:1010D00010BD002084F83C00204600F01FF80220DC
:1010E00084F83D00211D206800F066FD012084F891
:1010F000460084F83E0084F83F0084F8400084F8FD
:10110000410084F8420084F8430084F8440084F8E5
:10111000450084F83D00002010BD000010B586B0E9
:10112000044614216846FFF7ECF9226800211B48A9
:10113000B2F1804F0CD01A498A4207D1016841F4BC
:1011400080710160006800F48070059006B010BDE9
:10115000026842F001020260006800F001000590A0
:101160000E481038026842F0010202600068022254
:1011700000F00100059001200090CDE90121CDE9AA
:10118000031069460748FFF7F7FA002211461C20B2
:10119000FFF766FC1C20FFF755FCD7E740380240FC
:1011A000002000400000024090F83D10012901D0CD
:1011B00001207047022180F83D10006811498842E3
:1011C00014D0B0F1804F11D00F4988420ED00F4992
:1011D00088420BD00E49884208D00E49884205D07B
:1011E0000D49884202D00D49884204D1816801F03E
:1011F0000701062903D0016841F0010101600020C8
:10120000704700000000014000040040000800405A
:10121000000C004000040140004001400018004064
:1012200090F83D10012901D001207047022180F87B
:101230003D100168CA6842F00102CA6000681149A5
:10124000884214D0B0F1804F11D00F4988420ED09F
:101250000E4988420BD00E49884208D00D49884279
:1012600005D00D49884202D00C49884204D18168DA
:1012700001F00701062903D0016841F00101016076
:1012800000207047000001400004004000080040BA
:10129000000C0040000401400040014000180040E4
:1012A00070B5044690F83C000025012817D00126AF
:1012B00084F83C60022084F83D002068826822F0B7
:1012C000770222F47F4282600868502838D00DDC13
:1012D00020284FD005DC90B3102811D14AE002201D
:1012E00070BD302846D040280AD13BE060282FD07E
:1012F00070280DD0B0F5805F03D0B0F5005F12D03C
:10130000012584F83D60002084F83C00284670BD2B
:10131000CB68D1E90121206800F0C7FC2068816812
:1013200041F0770109E0CB68D1E90121206800F0A4
:10133000BCFC2068816841F480418160E1E719E0EC
:10134000CA684968206800F085FD5021206806E0E1
:10135000CA684968206800F08EFD6021206800F0AE
:10136000AEFCCEE7CA684968206800F073FD4021F2
:101370002068F4E7226801461046F0E770472DE93F
:10138000F04104460068C66805694FF00007A907E8
:1013900013D5B10711D5F91E01610120207720680E
:1013A00080698007204602D0FFF7E8FF04E000F0E4
:1013B000ABF8204600F03DF92777680716D570078F
:1013C00014D521686FF0040008610220207720689E
:1013D000806910F4407F204602D0FFF7CFFF04E081
:1013E00000F092F8204600F024F92777280715D559
:1013F000300713D521686FF00800086104202077BA
:101400002068C0698007204602D0FFF7B7FF04E0DC
:1014100000F07AF8204600F00CF92777E80616D598
:10142000F00614D521686FF01000086108202077BD
:101430002068C06910F4407F204602D0FFF79EFF6D
:1014400004E000F061F8204600F0F3F82777E807A1
:1014500008D0F00706D021686FF00100086120462F
:1014600000F04CF9280608D5300606D521686FF043
:10147000800008612046FFF7D9FD680608D5700690
:1014800006D521686FF040000861204600F058F949
:10149000A8060AD5B00608D521686FF020000861BB
:1014A0002046BDE8F041FFF7C2BDBDE8F081000075
:1014B00010B586B0044614216846FFF722F80F499C
:1014C0002068884217D10E480021026842F02002AD
:1014D0000260006800F0200005904FF4007000905A
:1014E000022001900120CDE9020109200490694603
:1014F0000448FFF741F906B010BD0000002000408D
:101500003038024000140240704770B5044690F82D
:101510003C0000260D4601280FD0012084F83C0035
:101520006AB1042A1DD0082A2FD00C2A3FD00126E8
:10153000002084F83C00304670BD022070BD206859
:1015400000F0C6FB2068816941F0080181612068D4
:10155000816921F004018161206881692A69114350
:1015600011E0206800F0E4FB2068816941F400612B
:1015700081612068816921F48061816120688169CD
:101580002A6941EA02218161D2E7206800F006FC65
:101590002068C16941F00801C1612068C16921F07A
:1015A0000401C1612068C1692A69114311E0206802
:1015B00000F028FC2068C16941F40061C161206825
:1015C000C16921F48061C1612068C1692A6941EA69
:1015D0000221C161ACE710B5040003D094F83D00CE
:1015E00010B107E0012010BD002084F83C00204627
:1015F00000F01EF8022084F83D00211D206800F054
:10160000DBFA012084F8460084F83E0084F83F00AD
:1016100084F8400084F8410084F8420084F84300D4
:1016200084F8440084F8450084F83D00002010BD93
:101630007047704710B50446022249B104290ED004
:10164000082913D094F84100012816D0012010BDBC
:1016500094F83E000128F9D184F83E200FE094F878
:101660003F000128F2D184F83F2008E094F84000C0
:101670000128EBD184F8402001E084F841200122C8
:10168000206800F005FB16492068164A884201D000
:10169000904203D1436C43F4004343642068884282
:1016A00013D0B0F1804F10D00F4988420DD00F49B0
:1016B00088420AD00E49884207D0904205D00D4991
:1016C000884202D00C49884204D1816801F00701A8
:1016D000062903D0016841F001010160002010BD1E
:1016E00000000140000401400004004000080040E8
:1016F000000C004000400140001800400EB50B49AE
:10170000884212D10A480BA20B2143685B1C43603C
:101710006846FEF725FE6846FEF7D4FE82B24FF01B
:10172000FF336946054800F075F80EBD180000202B
:1017300000000020256C750D0A000000A8000020A4
:10174000704770B5040004D094F84100002510B132
:1017500006E0012070BD84F84050204600F024F8D7
:10176000242084F841002068C16821F40051C16040
:10177000204600F0B9FB2068016921F49041016125
:101780002068416921F02A0141612068C16841F463
:101790000051C1606564202084F8410084F8420053
:1017A0006563002070BD000010B586B004461421AA
:1017B0006846FEF7A6FE14492068884221D11348E6
:1017C0000021026842F010020260006800F0100080
:1017D00005900E481438026842F001020260006869
:1017E00000F0010005904FF4C06000900220CDE9A8
:1017F0000101032003900720049069460448FEF786
:10180000BBFF06B010BD000000100140443802408C
:10181000000002402DE9F843044690F84100984644
:1018200016460D46202802D00220BDE8F88385B177
:101830007EB100206064212084F84100FFF7A2F807
:10184000A6848146E684A0682027B0F5805F02D098
:1018500003E00120E9E7206910B12E4600250EE0E3
:1018600000260CE08021204600F0C4FBA8B9C6B1D8
:1018700016F8010B21684860E08C401EE084E08C83
:101880004B464FF00002CDF800800028EAD14FF01F
:101890004001204600F0AEFB40B184F841700320C7
:1018A000C3E735F8020BC0F30800E3E784F84170A2
:1018B0000020BAE7FEE700002DE9F04387B01421CD
:1018C0006846FEF71EFE46480025016841F01001FB
:1018D0000160016801F010010591016841F0040107
:1018E0000160016801F004010591016841F02001E7
:1018F0000160016801F020010591016841F080015B
:101900000160016801F080010591016841F0010169
:101910000160016801F001010591016841F00201D7
:1019200001600068DFF8BC9000F002004FF48067AF
:101930000590002239464846FFF71EF804264FF46A
:10194000881001240096CDE90104DFF89C806946E7
:101950004046FEF711FF082000904FF40410CDE937
:10196000010469464046FEF707FF102000904FF43F
:101970004410CDE9010469464046FEF7FDFECDE97D
:10198000007469464846CDE90245FEF7F5FE4FF47E
:10199000407000901220CDE901050320CDE9030637
:1019A00069461248FEF7E8FE002201210820FFF7F1
:1019B00057F80820FFF746F8002202210920FFF718
:1019C0004FF80920FFF73EF8002203210A20FFF715
:1019D00047F80A20FFF736F807B0BDE8F0830000AB
:1019E000303802400014024000100240000402405F
:1019F00010B588B01C216846FEF783FD16481549CE
:101A0000002401605321C0E9011440F2F311C0E940
:101A1000031480218161FFF753FB08B1FEF75EFEDE
:101A20000D48FFF7D8FD08B1FEF758FE6020009082
:101A30000520CDE901040022694607480494FFF718
:101A400064FD08B1FEF74AFE0348FFF731FD08B018
:101A500010BD0000002000406000002010B586B0DE
:101A600000241748009401940294039404944FF0C6
:101A700080410594C0E900143221C0E9024180216F
:101A800004618161FFF71CFB08B1FEF727FE4FF4EC
:101A90000050CDE900040294694609480394FFF719
:101AA000FFFB08B1FEF71AFE049404A9044805944C
:101AB000FFF7BEFA002801D0FEF710FE06B010BDF9
:101AC000180000200C4810B50A4901604FF4E131BC
:101AD0004160002181600C22C160C0E90412816173
:101AE000C161FFF72EFE002803D0BDE81040FEF7CD
:101AF000F5BD10BD00100140A8000020FEE7FEE784
:101B000070477047FEF744BF30B593B03021684648
:101B1000FEF7F7FC14210CA8FEF7F3FC1D48002586
:101B2000016841F080510160006800F08050119020
:101B30001948016841F4804101600068022400F402
:101B40008040119001200090000401908001CDE9B7
:101B5000064008AA0420A82182E813000B906846DA
:101B6000FFF79AF808B172B6FEE70CA90F2081E8DA
:101B700031004FF4A0500F904FF480501090052189
:101B80000CA8FEF79FFF002801D072B6FEE713B045
:101B900030BD00004038024000700040024801683B
:101BA00041F470010160704788ED00E00148FFF7E3
:101BB000E6BB000018000020F0B50268294C2A4D51
:101BC0002A4E2B4F2B4B4FF0804CA04209D0604542
:101BD00007D0A84205D0B04203D0B84201D0984205
:101BE00004D122F0700E4A6842EA0E02A0421BD0D5
:101BF000604519D0A84217D0B04215D0B84213D0D2
:101C0000984211D01C4DA8420ED01C4DA8420BD0BA
:101C10001B4DA84208D01B4DA84205D01A4DA84222
:101C200002D01A4DA84203D122F44075CA682A4353
:101C30004D6922F080022A4302608A68C2620A6803
:101C40008262A04201D0984201D109690163012159
:101C500041610169C90703D0016921F001010161F6
:101C6000F0BD0000000001400004004000080040FA
:101C7000000C0040000401400040014000440140CD
:101C80000048014000180040001C004000200040B7
:101C900010B501F01F030121046A99408C430462CE
:101CA000016A9A401143016210BD10B5846842EA8E
:101CB000032224F47F440A432243826010BD8268D9
:101CC00022F070020A4342F0070181607047000071
:101CD000F0B5036A026A22F0010202624268846976
:101CE000124E24F073050C682C4323F002058B6818
:101CF0002B430D4DA84201D0B04205D123F0080777
:101D0000CB683B4323F00403A84201D0B04205D185
:101D10004D6922F4407215438A692A434260846106
:101D2000496841630362F0BD0000014000040140C6
:101D3000F0B5026A036A23F0100303624368846902
:101D40000D6824F4E64444EA05248D6822F020025C
:101D500042EA05120F4D104EA84201D0B04206D102
:101D6000CF6822F0800242EA071222F04002A84225
:101D700001D0B04207D14D6923F4406343EA8503A3
:101D80008D6943EA85034360846149688163026227
:101D9000F0BD00000000014000040140F0B5026AFF
:101DA000036A23F4807303624368C46922F40072F7
:101DB00024F073050C68124E2C438D6842EA05220C
:101DC0000E4DA84201D0B04206D1CF6822F4006285
:101DD00042EA072222F48062A84201D0B04207D131
:101DE0004D6923F4405343EA05138D6943EA051313
:101DF0004360C4614968C1630262F0BD00000140F4
:101E00000004014030B5046A026A22F48052026282
:101E10004268C3690D6823F4E64343EA05238D68ED
:101E200024F4005444EA0534084DA84202D0084D79
:101E3000A84204D14D6922F4804242EA85124260F0
:101E4000C36149680164046230BD000000000140C4
:101E50000004014010B5036A046A24F0010404621E
:101E6000846924F0F00444EA021423F00A020A43CD
:101E70008461026210BD10B5036A046A24F0100484
:101E80000462846923F0A00324F4704444EA02321B
:101E900043EA01118261016210BD01680C3151E811
:101EA000002F22F4907241E80023002BF5D1016845
:101EB000143151E8002F22F0010241E80023002BE9
:101EC000F5D1016B012909D101680C3151E8002FCE
:101ED00022F0100241E80023002BF5D1202180F8E8
:101EE000421000210163704770B504460068016923
:101EF000E26821F44051114301612169A068E2695F
:101F000008436169114308432168CA6849F20C63B8
:101F10009A430243CA6020684169A26921F4407172
:101F20001143416131492068884202D030498842DA
:101F300002D1FEF771FE01E0FEF75EFEE2690023CA
:101F4000192164253226B2F5004F626828D0A0FB23
:101F50000101930F9200FEF78BF90146B0FBF5F0FB
:101F60006FF01802504301EB800006EB0010B0FB4D
:101F7000F5F000F0F002B1FBF5F002EB0012B1FB5E
:101F8000F5F06FF01803584301EB800006EB0010EA
:101F9000B0FBF5F000F00F0021681044886070BDC0
:101FA000A0FB010192185B41FEF762F90146B0FB0C
:101FB000F5F00201B1FBF5F06FF01803584301EBA7
:101FC000800006EBC000B0FBF5F000F0F80002EB7B
:101FD0004002B1FBF5F0584301EB800006EBC00076
:101FE000B0FBF5F000F00700D6E70000001001405C
:101FF000001401402DE9F843984617460D46044663
:10200000089E24E0701C22D0FEF7BCFCA0EB080068
:10201000B0421AD8CEB12068C168490717D5802DC3
:1020200015D0402D13D00168C94309070FD40168AA
:102030000025406800902046FFF72FFF08206064CD
:1020400084F840500120BDE8F8830320FBE72068B6
:10205000006835EA000004D00020B842D2D0002049
:10206000F1E70120F9E7FEE70907090E002804DB84
:1020700000F1E02080F80014704700F00F0000F13C
:10208000E02080F8141D7047FEF78AFCFFF73CFD46
:10209000FFF712FCFFF716FDFFF7E0FCFFF7A8FCC7
:1020A0001448FFF7BDF81448FFF77EF800211248E6
:1020B000FFF7C0FA11A42046FEF704FA82B24FF0EF
:1020C000FF3321461148FFF7A5FB00240A4E0125E6
:1020D0004FF4FA770A20FEF703FB0DB1641C00E011
:1020E000641EA4B2BC4200D9002504B901253068A1
:1020F0004463EFE7180000206000002048656C6C26
:102100006F2C205553415254210D0A00A800002085
:102110004FF04070E1EE100A704700000000000030
:102120000000010203040607080900000000010284
:1021300003040000542100080000002018000000E3
:10214000C40100086C2100081800002038070000B6
:10215000E001000800000000000000000100000095
:0C21600010000000000000000024F4004B
:040000050800018965
:00000001FF
