:020000040800F2
:10000000980B0020310200081B160008C9120008D6
:100010001916000843070008751B000800000000BF
:10002000000000000000000000000000CB1A0008E3
:100030004507000800000000C91A0008CD1A000892
:100040004B0200084B0200084B0200084B0200085C
:100050004B0200084B0200084B0200084B0200084C
:100060004B0200084B0200084B0200084B0200083C
:100070004B0200084B0200084B0200084B0200082C
:100080004B0200084B0200084B0200084B0200081C
:100090004B0200084B0200084B0200084B0200080C
:1000A0004B0200084B0200084B0200084B020008FC
:1000B0004B0200084B0200084B0200084B020008EC
:1000C0004B0200084B0200084B0200084B020008DC
:1000D0004B0200084B0200084B0200084B020008CC
:1000E0004B0200084B0200084B0200084B020008BC
:1000F0004B0200084B0200084B0200084B020008AC
:100100004B0200084B0200084B0200084B0200089B
:100110004B0200084B0200084B0200084B0200088B
:100120004B0200084B0200084B0200084B0200087B
:100130004B0200084B0200084B0200084B0200086B
:100140004B0200084B0200084B0200084B0200085B
:100150004B0200084B0200084B0200084B0200084B
:100160004B0200084B0200084B0200084B0200083B
:100170004B0200084B0200084B0200080000000080
:100180004B0200084B02000800F002F800F041F8B2
:100190000AA090E8000C82448344AAF10107DA45E2
:1001A00001D100F036F8AFF2090EBAE80F0013F0F3
:1001B000010F18BFFB1A43F001031847241D00006C
:1001C000441D0000103A24BF78C878C1FAD85207FD
:1001D00024BF30C830C144BF04680C6070470000C1
:1001E0000023002400250026103A28BF78C1FBD840
:1001F000520728BF30C148BF0B607047752900F017
:10020000C980002070471FB501F044FD1FBD10B527
:1002100010BD00F05CFA1146FFF7F5FF01F0D6FCC7
:1002200000F07AFA03B4FFF7F2FF03BC00F082FAA1
:100230000948804709480047FEE7FEE7FEE7FEE77A
:10024000FEE7FEE7FEE7FEE7FEE7FEE704480549B6
:10025000054A064B70470000651B0008890100082D
:1002600098050020980B0020980700209807002090
:1002700053EA020C00F069802DE9F04B4FF00006C4
:10028000002B1FBFB3FA83F503FA05F424FA05F631
:100290005E4012BF1643B2FA82F502FA05F4C5F1C8
:1002A00020051EBF22FA05FC44EA0C04203556EA5C
:1002B000044C4FEA144418BF641C4FF000084FF080
:1002C0000009904271EB030C39D3002919BFB1FA30
:1002D00081F701FA07F6B0FA80F700FA07F6C7F1DE
:1002E00020071EBF20FA07FC46EA0C062037B6FBA3
:1002F000F4FCA7EB0507103F07F01F0BCBF120061E
:100300000CFA0BFB2CFA06F644BFB3460026202F4E
:10031000A4BF5E464FF0000B5BEA060C08BF4FF02F
:10032000010B19EB0B09ABFB027C48EB0608C01B69
:1003300006FB02CC0BFB03CC71EB0C01C1E70B46B7
:10034000024641464846BDE8F08B13B54FF0000029
:100350004FF00001AFF30080BDE81C407047000083
:100360000FB41CB50C0007AA009001D02044401E19
:10037000074B7B4469460190069800F088F9002CF1
:1003800003D06946002000F095F91CBC5DF814FB11
:10039000490300002DE9F041064600241068752944
:1003A000314616A510D0AFF30080002802DA404293
:1003B00013A507E031688A0701D512A502E04907B5
:1003C00004D511A5012401E0AFF3008000210A2229
:1003D00006F1240709E0B0FBF2FCB0FBF2F302FBEC
:1003E0001C00303078541846491C0028F3D12346AD
:1003F0002A463046BDE8F04100F0EAB800000000AF
:100400002D0000002B000000200000002DE9F0412D
:100410000F460546002028622846E968884770B3E1
:10042000252805D0D5E901219047286A401CF2E72C
:10043000E9682846002688476C2804460AD0682CBC
:1004400008D04C2C35D06A2C31D0742C31D07A2C79
:100450002FD016E0E968064628468847B042044691
:1004600008D16C2E23D04FF480662846E96888476F
:10047000044606E06C2E03D04FF4807601E01EE0C7
:100480004026E4B1A4F14100192802D8203446F4F2
:1004900000663A46214628462E60FFF7AFFE60B15F
:1004A000012808D0FF1D27F007070837B4E780268A
:1004B000DBE70026D9E73F1DAEE72046B2E7286A12
:1004C000BDE8F08110B5203AC0F00B80B1E81850BB
:1004D000203AA0E81850B1E81850A0E81850BFF42E
:1004E000F5AF5FEA027C24BFB1E81850A0E81850CD
:1004F00044BF18C918C0BDE810405FEA827C24BF21
:1005000051F8043B40F8043B08BF7047D20728BFAE
:1005100031F8023B48BF11F8012B28BF20F8023BFD
:1005200048BF00F8012B704702F0FF0343EA0322A3
:1005300042EA024200F002B84FF000020429C0F083
:10054000128010F0030C00F01B80CCF1040CBCF105
:10055000020F18BF00F8012BA8BF20F8022BA1EB57
:100560000C0100F00DB85FEAC17C24BF00F8012B3C
:1005700000F8012B48BF00F8012B70474FF0000234
:1005800000B5134694469646203922BFA0E80C5089
:10059000A0E80C50B1F12001BFF4F7AF090728BF64
:1005A000A0E80C5048BF0CC05DF804EB890028BFE0
:1005B00040F8042B08BF704748BF20F8022B11F009
:1005C000804F18BF00F8012B704770477047704785
:1005D0002DE9F0470D4699469246044600F124085D
:1005E0000168880604D5E06921F01001216000E06F
:1005F0000120A84201DD471B00E00027A1697A190C
:1006000002EB0900081AA0612078C00602D4204637
:10061000AFF30080002608E0D4E901211AF80600B3
:100620009047206A401C761C20624E45F4DB2078FF
:10063000C0060AD52046AFF3008006E0D4E90121C8
:1006400030209047206A401C2062381EA7F1010725
:10065000F4DC07E0D4E9012118F805009047206A8E
:10066000401C2062281EA5F10105F3DC2046AFF3F3
:1006700000802078000602D50220BDE8F087012026
:10068000FBE7000001694A1C02610878704700B569
:100690008FB0CDE901310021059105497944CDE9BB
:1006A000031011466846FFF7B1FE0FB000BD000011
:1006B000E5FFFFFF0A6802F8010B0A607047D1E905
:1006C00000239A4202D2531C0B601070704775468B
:1006D00000F02CF8AE4605006946534620F00700AE
:1006E000854618B020B5FFF7B1FDBDE820404FF0BA
:1006F00000064FF000074FF000084FF0000B21F00C
:100700000701AC46ACE8C009ACE8C009ACE8C009D8
:10071000ACE8C0098D46704710B50446AFF30080C1
:100720002046BDE81040FFF77DBD0000004870473F
:100730003805002001491820ABBEFEE72600020064
:100740007047FEE7704772B6FEE700002DE9F84FEC
:10075000DFF8BCA10022012503264FF00F090AF1A2
:10076000040BAAF1040E00BF0B6805FA02F4234043
:10077000A34270D10F7907F00307012F01D0022F98
:1007800016D187684FEA420806FA08FC27EA0C07E8
:10079000D1F80CC00CFA08FC4CEA070CC0F808C0F1
:1007A0004768A7430C79C4F3001494403C43446069
:1007B0000C79E443A4070AD0C4684FEA420C06FA55
:1007C0000CF7BC438F6807FA0CF72743C7600C7916
:1007D00004F00304022C12D1D40800EB840CDCF8E2
:1007E00020405707FF0E09FA07F824EA0804D1F859
:1007F000108008FA07F848EA0408CCF8208004685A
:100800004FEA420C06FA0CF7BC430F7907F00307D6
:1008100007FA0CF7274307604C6814F4403F70D088
:100820003C4C276847F480472760246822F0030780
:1008300004F480440094384C07EB040CDCF80848BE
:1008400097074FEA177809FA08F7BC43334FB842C5
:1008500002D1002724E054E0314FB84201D10127F2
:100860001EE0304FB84201D1022719E02E4FB842A6
:1008700001D1032714E02D4FB84201D104270FE026
:100880002B4FB84201D105270AE02A4FB84201D1C7
:10089000062705E0284FB84201D1072700E00827C6
:1008A00007FA08F72743CCF80878DAF800405746EB
:1008B000D1F804C09C435FEACC2C00D51C433C60BB
:1008C000DBF800405F46D1F804C09C435FEA8C2C03
:1008D00000D51C433C60DEF800407746D1F804C0E8
:1008E0009C435FEA8C3C00D51C433C60084F083FAA
:1008F0003C68D1F804C09C435FEACC3C00D51C4363
:100900003C60521C102AFFF42FAFBDE8F88F0000A6
:10091000083C0140443802400030014000000240E1
:100920000004024000080240000C02400010024097
:100930000014024000180240001C02400148806878
:10094000704700000000002070B5040025D094F826
:100950003D00002520B984F83C50204600F050F9B5
:10096000242084F83D002068016821F00101016025
:100970002068016841F4004101602068016821F4A9
:100980000041016000F096FA4D4A6168914201D839
:100990004C4900E04C49884201D2012070BD4B49CE
:1009A0002368B0FBF1F15E6826F03F060E435E60FF
:1009B0006368934206D94FF4967359434FF47A73A0
:1009C000B1FBF3F12368491C1E6A26F03F06314350
:1009D00019626168914210D84900401EB0FBF1F2E3
:1009E000521CC2F30B02042A01D2042022E0B0FB05
:1009F000F1F0401CC0F30B001CE0A268F2B301EB65
:100A0000C10303EB0116431EB3FBF6F35B1C43F477
:100A100080431B0549D092B301EBC10202EB0111E7
:100A2000401EB0FBF1F0401CC0F30B0040F48040CE
:100A300040F400402168CA694CF6FF739A431043A2
:100A4000C861D4E9071001432068026822F0C0029F
:100A500011430160D4E9030101432068826848F230
:100A6000FF339A4311438160D4E9050108432168AB
:100A7000CA6822F0FF021043C86001E00EE016E0F1
:100A80002068016841F0010101602564202084F89C
:100A90003D00256384F83E50002070BD01EB410607
:100AA000431EB3FBF6F35B1CB3E70120C2E701EB87
:100AB0004101401EB0FBF1F0401CC0F30B00B7E752
:100AC000A086010080841E0000093D0040420F0006
:100AD0002DE9FF4F83B09A46DDE91197934604460E
:100AE000DDF84080FFF72AFF054694F83D002028F6
:100AF0007FD11923012240492046009500F07CFC5B
:100B0000002876D194F83C00012872D0012084F8A6
:100B10003C0020680168C90703D1016841F0010168
:100B200001602068016821F400610160212084F8DF
:100B30003D00402084F83E0000262664C4F824804E
:100B4000A4F82A90608D20852C48E062CDE90075DC
:100B500053465A462046049900F0CEFB70B930E067
:100B60002A463946204600F0EDFC58B1206C042896
:100B700004D12068016841F400710160012007B0D0
:100B8000BDE8F08F606A216800780861606A401CE7
:100B90006062218D491E89B22185628D521E628557
:100BA00022685369DB435B070BD469B1007810619D
:100BB000606A401C6062208D401E2085608D401E52
:100BC0006085208D0028CBD12A463946204600F08A
:100BD000E7FB0028CAD154F83D0B016841F40071CD
:100BE0000160202004F81E09E67766770020C6E73A
:100BF000FFE70220C3E70000020010000000FFFF33
:100C000010B586B0044614216846FFF7B7FC1349B7
:100C10002068884220D112480021026842F0020276
:100C20000260006800F002000590C02000901220D1
:100C3000CDE901010320039004200490694609488E
:100C4000FFF784FD06481030016841F4001101608F
:100C5000006800F40010059006B010BD005400407C
:100C60003038024000040240024881680278114492
:100C700081607047000000200B4810B5016841F406
:100C800000710160016841F480610160016841F414
:100C900080710160032000F061F8002000F006F888
:100CA00000F024F8002010BD003C024070B50D4D4E
:100CB00004464FF47A712878B1FBF0F00A490968CC
:100CC000B1FBF0F000F0ECFA48B9102C07D200228A
:100CD0002146501E00F022F800206C6070BD0120FB
:100CE00070BD0000000000200C0000200A4808B57C
:100CF000016841F480410160006800F48040009088
:100D00000548001F016841F080510160006800F053
:100D10008050009008BD000044380240F0B40E4BF3
:100D20001B680C46C3F30223C3F10705042D00D949
:100D30000425191D072901D2002300E0DB1E01262E
:100D400006FA05F1491E214099409E40761E164044
:100D50003143F0BC00F00FBF0CED00E0064900F09D
:100D6000070208684FF6FF03184040EA0220034AD2
:100D700010430860704700000CED00E00000FA0529
:100D80002DE9F0470E46050065D0DFF81481D8F84C
:100D90000000F7B200F00700B04207D288F80070F8
:100DA000D8F8000000F00700B04254D128683D4C4C
:100DB000810712D5400703D5206840F4E050206039
:100DC0002878000703D5206840F460402060206840
:100DD000A96820F0F000084320602878C0072DD0D3
:100DE000304968680839012812D0022813D0032836
:100DF00011D00968890700292DDA216821F0030143
:100E000001432160FFF79AFD814641F2883A0EE0E6
:100E100009688903EFE709688901ECE7FFF78EFDB0
:100E2000A0EB0901514502D90320BDE8F0872068F5
:100E3000696800F00C00B0EB810FEFD1D8F800101A
:100E4000404601F00701B14207D90770006800F081
:100E50000700B04201D00120E7E72878400705D518
:100E60002068E96820F4E0500843206028780007F3
:100E700006D52068296920F4604040EAC10020605E
:100E800000F028F82168084AC1F30311515CC840FA
:100E90000649086006480068FFF708FF0020C4E71D
:100EA000003C0240083802409E1C00080C00002054
:100EB000040000200448054900680968044AC1F399
:100EC0008221515CC84070470C0000200838024065
:100ED000AE1C0008154810B5006810F00C0214484C
:100EE00013D04110042A0FD0082A0ED10F4C241F12
:100EF0002268236802F03F025B0207D52068C0F336
:100F00008810A0FB010106E0084610BD2168C1F36E
:100F10008811A1FB00010023FFF7AAF92168C1F3A2
:100F20000141491C4900B0FBF1F010BD08380240F6
:100F30000024F4002DE9F84F04006ED02078DFF88B
:100F40004C93C007A9F104054AD009F104000168D7
:100F5000C1F38101012908D00068C0F38100022893
:100F60000AD1D9F80000400206D52868800337D599
:100F700060680028E1D033E06068B0F5803F10D0B1
:100F8000B0F5A02F286810D020F4803028602868A1
:100F900020F4802028606068A8B1FFF7CFFC0646E7
:100FA0000DE0286840F48030F4E740F480202860A9
:100FB000F7E700BFFFF7C2FC801B642873D82868DE
:100FC0008003F7D50CE0FFF7B9FC064605E000BF4B
:100FD000FFF7B4FC801B6428F0D828688003F7D49E
:100FE0002078DFF8AC8280074FF0000A3ED5A74892
:100FF000001D016811F00C0F08D00068C0F38100DB
:1010000002280BD1D9F80000400207D428688007D5
:1010100016D5E068012800D112E033E1E068B8B1EC
:101020000120C8F80000FFF789FC064605E000BF74
:10103000FFF784FC801B0228C0D828688007F7D5FA
:101040002868216920F0F80040EAC10028600DE01E
:10105000C8F800A0FFF772FC064604E0FFF76EFC3C
:10106000801B02281FD828688007F7D42078000743
:1010700022D5864F87486169703771B101210160BF
:10108000FFF75CFC064604E0FFF758FC801B0228D3
:1010900009D838688007F7D50EE0C0F800A0FFF740
:1010A0004DFC064605E082E0FFF748FC801B022865
:1010B0007DD838688007F7D42078400768D5DFF8F6
:1010C000CCB100270BF13C0BDBF80000C0000BD4C7
:1010D000DBF8001041F08051CBF80010DBF8000085
:1010E000012700F0805000906B4E3068C00510D48E
:1010F000306840F480703060FFF720FC009005E01D
:10110000FFF71CFC0099401A022850D83068C0052F
:10111000F6D55E4EA0686C3601280FD005283068E1
:1011200010D020F001003060306820F00400306002
:10113000A068B8B1FFF702FC00900FE0306840F003
:101140000100F4E740F004003060F7E7FFF7F6FB3A
:101150000099411A41F28830814266D83068800790
:10116000F4D50EE0FFF7EAFB009007E0FFF7E6FB9F
:101170000099411A41F28830814256D83068800780
:10118000F4D42FB1DBF8001021F08051CBF800101F
:10119000A069C8B33D49091D0968C1F3810102294D
:1011A0004AD00228504607D0C8F8600000E03CE072
:1011B000FFF7C4FB04463BE04746C8F86000FFF772
:1011C000BDFB064605E000BFFFF7B8FB801B022809
:1011D0002BD828688001F7D4D4E907010843A16A15
:1011E0002E4A490802EB0141626A41EA8211084332
:1011F00094F82C1040EA0161C9F80010012038660B
:10120000FFF79CFB044606E03EE000BFFFF796FBBD
:10121000001B022809D828688001F7D534E000BFF8
:10122000FFF78CFB001B022802D90320BDE8F88FD2
:1012300028688001F4D427E00128F7D0D9F800000D
:10124000E26900F4800191421CD1226A00F03F0162
:10125000914217D147F6C071626A0140B1EB821F1B
:1012600010D1A26A4FF0FF3300F4403103EB520279
:10127000B1EB024F06D194F82C1000F07060B0EB87
:10128000016F01D00120D1E70020CFE704380240F0
:1012900000004742800E4742007000400000FFFF00
:1012A00010B5401EB0F1807F01D3012010BD4FF07A
:1012B000E02460610F21601700F05DFC0020A06158
:1012C00007202061002010BDFEE701684A69D24373
:1012D00052050FD46FF480624A61002140F8301F3C
:1012E000202242738173026942F004020261017399
:1012F00001207047002070472DE9F843044600683C
:101300000D46DDE9089701689846164641F480715C
:1013100001604B4600224FF001112046009700F07B
:101320006BF848B120680068C00502D54FF4007022
:1013300020640320BDE8F883216805F0FE00086101
:101340003B464A461549204600F09EF888B9206879
:101350004169806900903A464946204600F0F2F81B
:1013600048B1206C042804D12068016841F4007160
:1013700001600120DEE7F5B2B8F1010F09D0216864
:10138000300A08613A464946204600F0DBF800285A
:10139000E7D1206805610020CCE7000002000100D1
:1013A00070B516460D4604461EE02046FFF78DFF39
:1013B00008B1012070BD681C16D0FFF7BFFA801B72
:1013C000A84200D885B920684069C04340070BD5C2
:1013D000002044F8300F20216173A073216941F08F
:1013E000200121612073E4E720684069C043400781
:1013F000DBD4002070BD00002DE9F0479846174669
:101400000D460446C1F30746DDF820902AE000BFF0
:10141000B8F1FF3F26D0FFF791FAA0EB0901414553
:1014200002D8B8F1000F1DD12068012E16D08069B6
:1014300025EA00000004000C12D00020B84211D1AF
:10144000002044F8300F20216173A073216941F01E
:101450002001216120730120BDE8F0874069E7E7A2
:101460000120EBE72068012E0AD0806925EA000000
:101470000004000C06D00020B842C9D00020EBE7E1
:101480004069F3E70120F7E72DE9F0479846164653
:101490000D4604464FF000094FF0200AC1F30747FC
:1014A00023E020684069C043400515D420680168E6
:1014B00041F40071016021686FF480604861C4F8F4
:1014C000309084F83DA084F83E90216C41F00401F6
:1014D000216484F83C9021E0701C06D0FFF72EFABE
:1014E000A0EB0800B04203D816B1012F1FD021E0B5
:1014F0002068012F15D0806925EA00000004000C47
:1015000018D000BF44F8309F84F80DA084F80E90E6
:10151000216941F02001216184F80C900120BDE88F
:10152000F087406925EA00000004000CEAD1206839
:10153000406901E02068806925EA00000004000C91
:10154000AFD1ECE770B516460D4604461EE02046C6
:10155000FFF7BBFE08B1012070BD681C16D0FFF775
:10156000EDF9801BA84200D885B920684069C043C6
:1015700000060BD5002044F8300F20216173A073C2
:10158000216941F0200121612073E4E7206840696E
:10159000C0430006DBD4002070BD00000D4808B534
:1015A000016841F004010160016801F0040100914B
:1015B000016841F080010160016801F08001009143
:1015C000016841F002010160006800F00200009033
:1015D00008BD0000303802400D4810B50B490160CD
:1015E0000C49416000214FF480428160C0E9031240
:1015F00041618161C1610162FFF7A6F9002803D052
:10160000BDE81040FFF79FB810BD00000054004037
:1016100010000020A0860100FEE7FEE72DE9F05F44
:1016200088460021072681460C46DFF87CA001236E
:1016300005E000BF1AF800201143401CC0B240452D
:10164000F8D901E0641CE4B203FA04F218460A4235
:10165000F8D001E0761EF6B200FA06F20A42F9D09E
:1016600032462146484600F0FEF94F46DFF83CB0CE
:101670000EE0254608E000BF0BEBC510C15D402021
:1016800000F010FA6D1CEDB2B542F5D97F1CFFB227
:101690004745EED9A8EB09010AEB0900BDE8F05F68
:1016A000491CFEF749BF00006404002064000020CC
:1016B0002DE9F84F0024DDE90A8A994615468B4644
:1016C0000746DE1D0EE04B46424659463846CDF8E9
:1016D00000A000F01FF86D1E04437F1C08EBD60825
:1016E000EDB2FFB2002DEED114B10120BDE8F88FAC
:1016F0000020FBE71CB5064C02EB420204EB420261
:10170000C03ACDE9002308230622FFF7D1FF1CBD14
:10171000B61C00082DE9FF4F83B01C46DDF840A041
:101720000E460746802802D23019402803D90120EE
:1017300007B0BDE8F08F002086E04649F20801EBD3
:10174000C219009219F80750BAF1000F06D0BAF189
:10175000010F2CD0BAF1020F45D05FE006F0070B65
:10176000CBF108000190A04211D3C4F10800FF2181
:10177000A0EB0B028140C8B2D04028402D1A22466F
:101780004146059800F007FA00FA0BF01EE0FF2032
:1017900000FA0BF028402D1A4146019A059800F0F6
:1017A000FAF900FA0BF02843C5B2019836E006F0CA
:1017B00007000190C0F108008346A04209D32246E9
:1017C0004146059800F0E7F9019988402843C5B2E1
:1017D00019E002464146059800F0DDF9019988407C
:1017E0002843C5B219E006F007000190C0F10800D7
:1017F0008346A04209D322464146059800F0CBF922
:10180000019988408543204608E0024641460598F4
:1018100000F0C1F9019988408543584619F807102E
:10182000A94209D00C4A009B4FF0010CD15D0CFA83
:1018300003FC41EA0C01D155211ACCB231184044C5
:1018400009F80750CEB2C0B28046002C7FF475AFC5
:1018500000206DE764000020640400202DE9F047BB
:1018600000269946174688460446354611E0601D15
:10187000802804D308F10800002400F0FF084B463C
:1018800041462046FFF736FFA41D0543761CE4B20F
:10189000B6B2BA5D002AEAD115B10120BDE8F087E1
:1018A0000020FBE70023FFF7D9BF000070B5064614
:1018B0000021084600F0D4F800244FF4806531463A
:1018C000402000F0EFF8641CA4B2AC42F7D33246DB
:1018D00029460448FEF728FEBDE8704080210248F2
:1018E000FEF74CBE64000020640400200FB42A22DE
:1018F00010B502A94848FEF7E5FDBDF83200464C98
:1019000060850D98E0620E98206309220FA904F10A
:101910003400FEF7D7FD9DF8450084F83D009DF8A2
:10192000460084F83E00129820641398606414986E
:10193000A0641598E06416982065AE21002000F0A0
:10194000B1F82021002000F0ADF80121002000F0C6
:10195000A9F88121002000F0A5F8FF21002000F067
:10196000A1F8C821002000F09DF8A121002000F07E
:1019700099F8A821002000F095F83F21002000F000
:1019800091F8D321002000F08DF80021084600F0E6
:1019900089F8D521002000F085F88021002000F092
:1019A00081F8D821002000F07DF80521002000F00A
:1019B00079F8D921002000F075F8F121002000F01D
:1019C00071F8DA21002000F06DF81221002000F0FB
:1019D00069F8DB21002000F065F83021002000F0DC
:1019E00061F88D21002000F05DF81421002000F046
:1019F00059F8A421002000F055F8A621002000F09D
:101A000051F80020FFF752FF10BCAF2100205DF815
:101A100014EB00F047B80000E404002070B500208B
:101A20000E4D03E0401CC0B2802802D8295C00297A
:101A3000F8D0014601E0491CC9B2802902D86A5C8D
:101A4000002AF8D1491ECCB2802802D82146FFF7DF
:101A5000E5FD641CE0B28028E6D970BD6404002076
:101A60000722AFF3008070B50D46044616462221CA
:101A7000002000F017F82946002000F013F8314646
:101A8000002000F00FF82121002000F00BF8214683
:101A9000002000F007F8BDE870407F21002000F032
:101AA00001B8000003B583B0FF23012204A98DE82B
:101AB0000E001346024678210248FFF709F805B0E8
:101AC00000BD0000E404002070477047FFF7CCB869
:101AD00030B593B030216846FEF750FD14210CA8B4
:101AE000FEF74CFD1D480025016841F08051016062
:101AF000006800F0805011901948016841F480415D
:101B000001600068022400F48040119001200090E0
:101B1000000401908001CDE9064008200890A8202B
:101B2000CDE9090404200B906846FFF703FA08B1D9
:101B300072B6FEE70CA90F2081E831004FF4A050E7
:101B40000F904FF48050109002210CA8FFF718F965
:101B5000002801D072B6FEE713B030BD4038024015
:101B6000007000400248016841F470010160704754
:101B700088ED00E0FEE70907090E002804DB00F10C
:101B8000E02080F80014704700F00F0000F1E02022
:101B900080F8141D704730B500EBD1031D7801F0BB
:101BA0000703C3F10804DD40121BD2B2214453B233
:101BB000C9B2002B04DC5942FF20C840284030BD88
:101BC000FFF7E9FFA0402843C0B230BDACB0FFF73B
:101BD00053F8FFF77DFFFFF7E1FCFFF7FDFC25A6BB
:101BE00028A5642329A2142126A8FEF7B9FB2A22DE
:101BF000274911A8FEF766FC254C608DADF86E00F4
:101C0000E06A1C90206B1D90092204F134011EA88B
:101C1000FEF758FC94F83D008DF8810094F83E00E2
:101C20008DF88200206C2190606C2290A06C239033
:101C3000E06C2490206D2590442215A96846FEF79B
:101C400041FC0DF1440C9CE80F00FFF74FFE012111
:101C500032460846FFF726FE2A4609210120FFF7F3
:101C600021FE26AA11210120FFF71CFEFFF7D6FE58
:101C7000FEE7000048656C6C6F2C576F726C642136
:101C8000000000004E6948616F000000256C75007F
:101C9000100000204FF04070E1EE100A7047000085
:101CA000000000000000010203040607080900000C
:101CB0000000010203040000000000000000002FEB
:101CC000000000000700070000147F147F140024A8
:101CD0002A7F2A12006264081323003649552250D5
:101CE00000000503000000001C224100000041220A
:101CF0001C000014083E08140008083E08080000F4
:101D000000A06000000808080808000060600000EB
:101D1000002010080402003E5149453E0000427F69
:101D20004000004261514946002141454B310018B5
:101D300014127F10002745454539003C4A49493077
:101D40000001710905030036494949360006494931
:101D5000291E00003636000000005636000000083C
:101D60001422410000141414141400004122140819
:101D700000020151090600324959513E007C1211FE
:101D8000127C007F49494936003E41414122007F93
:101D90004141221C007F49494941007F090909014D
:101DA000003E4149497A007F0808087F0000417FD2
:101DB0004100002040413F01007F08142241007F84
:101DC00040404040007F020C027F007F0408107FEB
:101DD000003E4141413E007F09090906003E415154
:101DE000215E007F09192946004649494931000111
:101DF000017F0101003F4040403F001F2040201F65
:101E0000003F4038403F0063140814630007087027
:101E1000080700615149454300007F4141000055DA
:101E20002A552A55000041417F00000402010204A6
:101E30000040404040400000010204000020545493
:101E40005478007F484444380038444444200038E3
:101E50004444487F00385454541800087E09010255
:101E60000018A4A4A47C007F080404780000447D2A
:101E70004000004080847D00007F10284400000066
:101E8000417F4000007C04180478007C080404783A
:101E900000384444443800FC242424180018242426
:101EA00018FC007C08040408004854545420000422
:101EB0003F444020003C4040207C001C2040201C2F
:101EC000003C4030403C004428102844001CA0A0A6
:101ED000A07C004464544C441414141414140000E2
:101EE000001F00080000002010000000C4010008CE
:101EF000101F000810000020880B0000E0010008FF
:101F00000100000010000000000000000024F400A8
:040000050800018965
:00000001FF
